111111                                             71710010010129562   Test Install        00060CMTCOY04         0
71710030017123456 Ace Electrical Impor2000000126340                                      059            PPY0001771
71710020010172343 The Advertising Agen2000000007931                                      059            PPY0001781
71710020010013131 Paul Barks          2000000079362                                      059            PPY0001791
717100100123456789Bristol Street Saab 2000000023500                                      059            PPY0001801
71700020071645342 Carpet Barn Limited 2000000094118                                      059            PPY0001811
717008300194367581Cool Air Company Ltd2000000270250                                      059            PPY0001821
71710210178934637 Coopers BMW         2000000088165                                      059            PPY0001831
7171001103452718  Cornhill Insurance  2000000011515                                      059            PPY0001841
404706718181818   Devlin's Heating & P2000000101050                                      059            PPY0001851
23230086767676767 Electrical Wholesale2000000050584                                      059            PPY0001861
73720078181818181 ExeNet Plc          2000000052875                                      059            PPY0001871
313202945454545456Farnell Limited     2000000232650                                      059            PPY0001881
0000001200001138340     0000000000000000000                          00002803827                                 9