3131310123456709917711777777777000000000205625TEST INSTALL      PPY000164/57      ACE ELECTRICAL IMP
2121217383283209917711777777777000000000079195TEST INSTALL      PPY000165/57      THE ADVERTISING AG
2020271818181809917711777777777000000000176250TEST INSTALL      PPY000166/57      PAUL BARKS        
1717175454545409917711777777777000000000041125TEST INSTALL      001234567899012   BRISTOL STREET SAA
2828287171717109917711777777777000000000374930TEST INSTALL      PPY000168/57      CARPET BARN LIMITE
8383879595959509917711777777777000000000053620TEST INSTALL      PPY000169/57      COOL AIR COMPANY L
2121279898456709917711777777777000000000094041TEST INSTALL      PPY000170/57      COOPERS BMW       
1010177474747409917711777777777000000000755729TEST INSTALL      PPY000171/57      CORNHILL INSURANCE
6760682121212109917711777777777000000000008742TEST INSTALL      PPY000172/57      DEVLIN S HEATING &
8084873333333309917711777777777000000000014505TEST INSTALL      PPY000173/57      ELECTRICAL WHOLESA
7474878181818109917711777777777000000000011750TEST INSTALL      PPY000174/57      EXENET PLC        
2920678382292909917711777777777000000000040935TEST INSTALL      PPY000175/57      FARNELL LIMITED   
