404787102345679900000205625PPY000164/57      ACE ELECTRICAL IMP
404787738328329900000079195PPY000165/57      THE ADVERTISING AG
404787181818189900000176250PPY000166/57      PAUL BARKS        
404787545454549900000041125001234567899012   BRISTOL STREET SAA
404787717171719900000374930PPY000168/57      CARPET BARN LIMITE
404787107654329900000053620PPY000169/57      COOL AIR COMPANY L
404787989845679900000094041PPY000170/57      COOPERS BMW       
404787747474749900000755729PPY000171/57      CORNHILL INSURANCE
404787212121219900000008742PPY000172/57      DEVLIN S HEATING &
404787333333339900000014505PPY000173/57      ELECTRICAL WHOLESA
404787818181819900000011750PPY000174/57      EXENET PLC        
292067838229299900000040935PPY000175/57      FARNELL LIMITED   
